{
  "_format": "hh3-artifact-1",
  "contractName": "Create",
  "sourceName": "contracts/VotingContract.sol",
  "abi": [
    {
      "inputs": [],
      "stateMutability": "nonpayable",
      "type": "constructor"
    },
    {
      "anonymous": false,
      "inputs": [
        {
          "indexed": true,
          "internalType": "uint256",
          "name": "candidateId",
          "type": "uint256"
        },
        {
          "indexed": false,
          "internalType": "string",
          "name": "age",
          "type": "string"
        },
        {
          "indexed": false,
          "internalType": "string",
          "name": "name",
          "type": "string"
        },
        {
          "indexed": false,
          "internalType": "string",
          "name": "image",
          "type": "string"
        },
        {
          "indexed": false,
          "internalType": "uint256",
          "name": "voterCount",
          "type": "uint256"
        },
        {
          "indexed": false,
          "internalType": "address",
          "name": "_address",
          "type": "address"
        },
        {
          "indexed": false,
          "internalType": "string",
          "name": "ipfs",
          "type": "string"
        }
      ],
      "name": "CandidateCreate",
      "type": "event"
    },
    {
      "anonymous": false,
      "inputs": [
        {
          "indexed": true,
          "internalType": "uint256",
          "name": "voter_voterId",
          "type": "uint256"
        },
        {
          "indexed": false,
          "internalType": "string",
          "name": "voter_name",
          "type": "string"
        },
        {
          "indexed": false,
          "internalType": "string",
          "name": "voter_image",
          "type": "string"
        },
        {
          "indexed": false,
          "internalType": "address",
          "name": "voter_address",
          "type": "address"
        },
        {
          "indexed": false,
          "internalType": "uint256",
          "name": "voter_allowed",
          "type": "uint256"
        },
        {
          "indexed": false,
          "internalType": "bool",
          "name": "voter_voted",
          "type": "bool"
        },
        {
          "indexed": false,
          "internalType": "uint256",
          "name": "voter_vote",
          "type": "uint256"
        },
        {
          "indexed": false,
          "internalType": "string",
          "name": "voter_ipfs",
          "type": "string"
        }
      ],
      "name": "VoterCreated",
      "type": "event"
    },
    {
      "inputs": [],
      "name": "_candidateId",
      "outputs": [
        {
          "internalType": "uint256",
          "name": "_value",
          "type": "uint256"
        }
      ],
      "stateMutability": "view",
      "type": "function"
    },
    {
      "inputs": [],
      "name": "_voterId",
      "outputs": [
        {
          "internalType": "uint256",
          "name": "_value",
          "type": "uint256"
        }
      ],
      "stateMutability": "view",
      "type": "function"
    },
    {
      "inputs": [
        {
          "internalType": "uint256",
          "name": "",
          "type": "uint256"
        }
      ],
      "name": "candidateAddress",
      "outputs": [
        {
          "internalType": "address",
          "name": "",
          "type": "address"
        }
      ],
      "stateMutability": "view",
      "type": "function"
    },
    {
      "inputs": [
        {
          "internalType": "address",
          "name": "",
          "type": "address"
        }
      ],
      "name": "candidates",
      "outputs": [
        {
          "internalType": "uint256",
          "name": "candidateId",
          "type": "uint256"
        },
        {
          "internalType": "string",
          "name": "age",
          "type": "string"
        },
        {
          "internalType": "string",
          "name": "name",
          "type": "string"
        },
        {
          "internalType": "string",
          "name": "image",
          "type": "string"
        },
        {
          "internalType": "uint256",
          "name": "voterCount",
          "type": "uint256"
        },
        {
          "internalType": "address",
          "name": "_address",
          "type": "address"
        },
        {
          "internalType": "string",
          "name": "ipfs",
          "type": "string"
        }
      ],
      "stateMutability": "view",
      "type": "function"
    },
    {
      "inputs": [],
      "name": "getCandidate",
      "outputs": [
        {
          "internalType": "address[]",
          "name": "",
          "type": "address[]"
        }
      ],
      "stateMutability": "view",
      "type": "function"
    },
    {
      "inputs": [
        {
          "internalType": "address",
          "name": "_address",
          "type": "address"
        }
      ],
      "name": "getCandidateData",
      "outputs": [
        {
          "components": [
            {
              "internalType": "uint256",
              "name": "candidateId",
              "type": "uint256"
            },
            {
              "internalType": "string",
              "name": "age",
              "type": "string"
            },
            {
              "internalType": "string",
              "name": "name",
              "type": "string"
            },
            {
              "internalType": "string",
              "name": "image",
              "type": "string"
            },
            {
              "internalType": "uint256",
              "name": "voterCount",
              "type": "uint256"
            },
            {
              "internalType": "address",
              "name": "_address",
              "type": "address"
            },
            {
              "internalType": "string",
              "name": "ipfs",
              "type": "string"
            }
          ],
          "internalType": "struct Create.Candidate",
          "name": "",
          "type": "tuple"
        }
      ],
      "stateMutability": "view",
      "type": "function"
    },
    {
      "inputs": [],
      "name": "getCandidateLength",
      "outputs": [
        {
          "internalType": "uint256",
          "name": "",
          "type": "uint256"
        }
      ],
      "stateMutability": "view",
      "type": "function"
    },
    {
      "inputs": [],
      "name": "getVotedVoterList",
      "outputs": [
        {
          "internalType": "address[]",
          "name": "",
          "type": "address[]"
        }
      ],
      "stateMutability": "view",
      "type": "function"
    },
    {
      "inputs": [
        {
          "internalType": "address",
          "name": "_address",
          "type": "address"
        }
      ],
      "name": "getVoterData",
      "outputs": [
        {
          "components": [
            {
              "internalType": "uint256",
              "name": "voter_voterId",
              "type": "uint256"
            },
            {
              "internalType": "string",
              "name": "voter_name",
              "type": "string"
            },
            {
              "internalType": "string",
              "name": "voter_image",
              "type": "string"
            },
            {
              "internalType": "address",
              "name": "voter_address",
              "type": "address"
            },
            {
              "internalType": "uint256",
              "name": "voter_allowed",
              "type": "uint256"
            },
            {
              "internalType": "bool",
              "name": "voter_voted",
              "type": "bool"
            },
            {
              "internalType": "uint256",
              "name": "voter_vote",
              "type": "uint256"
            },
            {
              "internalType": "string",
              "name": "voter_ipfs",
              "type": "string"
            }
          ],
          "internalType": "struct Create.Voter",
          "name": "",
          "type": "tuple"
        }
      ],
      "stateMutability": "view",
      "type": "function"
    },
    {
      "inputs": [],
      "name": "getVoterLength",
      "outputs": [
        {
          "internalType": "uint256",
          "name": "",
          "type": "uint256"
        }
      ],
      "stateMutability": "view",
      "type": "function"
    },
    {
      "inputs": [],
      "name": "getVoterList",
      "outputs": [
        {
          "internalType": "address[]",
          "name": "",
          "type": "address[]"
        }
      ],
      "stateMutability": "view",
      "type": "function"
    },
    {
      "inputs": [
        {
          "internalType": "address",
          "name": "_address",
          "type": "address"
        },
        {
          "internalType": "string",
          "name": "_age",
          "type": "string"
        },
        {
          "internalType": "string",
          "name": "_name",
          "type": "string"
        },
        {
          "internalType": "string",
          "name": "_image",
          "type": "string"
        },
        {
          "internalType": "string",
          "name": "_ipfs",
          "type": "string"
        }
      ],
      "name": "setCandidate",
      "outputs": [],
      "stateMutability": "nonpayable",
      "type": "function"
    },
    {
      "inputs": [
        {
          "internalType": "address",
          "name": "_candidateAddress",
          "type": "address"
        },
        {
          "internalType": "uint256",
          "name": "_candidateVoteId",
          "type": "uint256"
        }
      ],
      "name": "vote",
      "outputs": [],
      "stateMutability": "nonpayable",
      "type": "function"
    },
    {
      "inputs": [
        {
          "internalType": "uint256",
          "name": "",
          "type": "uint256"
        }
      ],
      "name": "votedVoters",
      "outputs": [
        {
          "internalType": "address",
          "name": "",
          "type": "address"
        }
      ],
      "stateMutability": "view",
      "type": "function"
    },
    {
      "inputs": [
        {
          "internalType": "address",
          "name": "_address",
          "type": "address"
        },
        {
          "internalType": "string",
          "name": "name",
          "type": "string"
        },
        {
          "internalType": "string",
          "name": "_image",
          "type": "string"
        },
        {
          "internalType": "string",
          "name": "_ipfs",
          "type": "string"
        }
      ],
      "name": "voterRight",
      "outputs": [],
      "stateMutability": "nonpayable",
      "type": "function"
    },
    {
      "inputs": [
        {
          "internalType": "address",
          "name": "",
          "type": "address"
        }
      ],
      "name": "voters",
      "outputs": [
        {
          "internalType": "uint256",
          "name": "voter_voterId",
          "type": "uint256"
        },
        {
          "internalType": "string",
          "name": "voter_name",
          "type": "string"
        },
        {
          "internalType": "string",
          "name": "voter_image",
          "type": "string"
        },
        {
          "internalType": "address",
          "name": "voter_address",
          "type": "address"
        },
        {
          "internalType": "uint256",
          "name": "voter_allowed",
          "type": "uint256"
        },
        {
          "internalType": "bool",
          "name": "voter_voted",
          "type": "bool"
        },
        {
          "internalType": "uint256",
          "name": "voter_vote",
          "type": "uint256"
        },
        {
          "internalType": "string",
          "name": "voter_ipfs",
          "type": "string"
        }
      ],
      "stateMutability": "view",
      "type": "function"
    },
    {
      "inputs": [
        {
          "internalType": "uint256",
          "name": "",
          "type": "uint256"
        }
      ],
      "name": "votersAddress",
      "outputs": [
        {
          "internalType": "address",
          "name": "",
          "type": "address"
        }
      ],
      "stateMutability": "view",
      "type": "function"
    },
    {
      "inputs": [],
      "name": "votingOrganizer",
      "outputs": [
        {
          "internalType": "address",
          "name": "",
          "type": "address"
        }
      ],
      "stateMutability": "view",
      "type": "function"
    }
  ],
  "bytecode": "0x6080604052348015600e575f5ffd5b503360025f6101000a81548173ffffffffffffffffffffffffffffffffffffffff021916908373ffffffffffffffffffffffffffffffffffffffff16021790555061278b8061005c5f395ff3fe608060405234801561000f575f5ffd5b5060043610610114575f3560e01c80638ab66a90116100a0578063a73889671161006f578063a738896714610325578063b28d92ae14610343578063b9be315214610361578063c91ec7121461037f578063f7522a831461039b57610114565b80638ab66a901461026a5780638e945685146102a05780638fb4cd80146102be578063a3ec138d146102ee57610114565b806343242daa116100e757806343242daa146101b25780635cc48aa7146101e25780635f74bbde1461020057806370218b851461021c5780637831ffb31461023a57610114565b80630361419e1461011857806305ad45a4146101345780632a466ac7146101525780633a88251a14610182575b5f5ffd5b610132600480360381019061012d919061195c565b6103b9565b005b61013c610657565b6040516101499190611a2c565b60405180910390f35b61016c60048036038101906101679190611a45565b610663565b6040516101799190611b9c565b60405180910390f35b61019c60048036038101906101979190611be6565b610962565b6040516101a99190611c20565b60405180910390f35b6101cc60048036038101906101c79190611be6565b61099d565b6040516101d99190611c20565b60405180910390f35b6101ea6109d8565b6040516101f79190611c20565b60405180910390f35b61021a60048036038101906102159190611c39565b6109fd565b005b610224610bb6565b6040516102319190611d1f565b60405180910390f35b610254600480360381019061024f9190611be6565b610c41565b6040516102619190611c20565b60405180910390f35b610284600480360381019061027f9190611a45565b610c7c565b6040516102979796959493929190611d87565b60405180910390f35b6102a8610ef1565b6040516102b59190611d1f565b60405180910390f35b6102d860048036038101906102d39190611a45565b610f7c565b6040516102e59190611ee5565b60405180910390f35b61030860048036038101906103039190611a45565b611210565b60405161031c989796959493929190611f14565b60405180910390f35b61032d611411565b60405161033a9190611a2c565b60405180910390f35b61034b61141c565b6040516103589190611d1f565b60405180910390f35b6103696114a7565b6040516103769190611a2c565b60405180910390f35b61039960048036038101906103949190611fa5565b6114b1565b005b6103a36116e1565b6040516103b09190611a2c565b60405180910390f35b3373ffffffffffffffffffffffffffffffffffffffff1660025f9054906101000a900473ffffffffffffffffffffffffffffffffffffffff1673ffffffffffffffffffffffffffffffffffffffff1614610448576040517f08c379a000000000000000000000000000000000000000000000000000000000815260040161043f906120fc565b60405180910390fd5b6104515f6116ed565b5f61045b5f611701565b90505f60075f8773ffffffffffffffffffffffffffffffffffffffff1673ffffffffffffffffffffffffffffffffffffffff1681526020019081526020015f2090505f8160040154146104e3576040517f08c379a00000000000000000000000000000000000000000000000000000000081526004016104da9061218a565b60405180910390fd5b6001816004018190555081815f01819055508481600101908161050691906123a5565b508381600201908161051891906123a5565b5085816003015f6101000a81548173ffffffffffffffffffffffffffffffffffffffff021916908373ffffffffffffffffffffffffffffffffffffffff1602179055508281600701908161056c91906123a5565b505f816005015f6101000a81548160ff0219169083151502179055506103e88160060181905550600686908060018154018082558091505060019003905f5260205f20015f9091909190916101000a81548173ffffffffffffffffffffffffffffffffffffffff021916908373ffffffffffffffffffffffffffffffffffffffff160217905550817ff5f39971dd62d9929e3a9feaa6bb77fe7c7da0001babff8a65a7e51ad0201c198686898560040154866005015f9054906101000a900460ff1687600601548a6040516106479796959493929190612474565b60405180910390a2505050505050565b5f600680549050905090565b61066b61170d565b60045f8373ffffffffffffffffffffffffffffffffffffffff1673ffffffffffffffffffffffffffffffffffffffff1681526020019081526020015f206040518060e00160405290815f82015481526020016001820180546106cc906121d5565b80601f01602080910402602001604051908101604052809291908181526020018280546106f8906121d5565b80156107435780601f1061071a57610100808354040283529160200191610743565b820191905f5260205f20905b81548152906001019060200180831161072657829003601f168201915b5050505050815260200160028201805461075c906121d5565b80601f0160208091040260200160405190810160405280929190818152602001828054610788906121d5565b80156107d35780601f106107aa576101008083540402835291602001916107d3565b820191905f5260205f20905b8154815290600101906020018083116107b657829003601f168201915b505050505081526020016003820180546107ec906121d5565b80601f0160208091040260200160405190810160405280929190818152602001828054610818906121d5565b80156108635780601f1061083a57610100808354040283529160200191610863565b820191905f5260205f20905b81548152906001019060200180831161084657829003601f168201915b5050505050815260200160048201548152602001600582015f9054906101000a900473ffffffffffffffffffffffffffffffffffffffff1673ffffffffffffffffffffffffffffffffffffffff1673ffffffffffffffffffffffffffffffffffffffff1681526020016006820180546108db906121d5565b80601f0160208091040260200160405190810160405280929190818152602001828054610907906121d5565b80156109525780601f1061092957610100808354040283529160200191610952565b820191905f5260205f20905b81548152906001019060200180831161093557829003601f168201915b5050505050815250509050919050565b60038181548110610971575f80fd5b905f5260205f20015f915054906101000a900473ffffffffffffffffffffffffffffffffffffffff1681565b600681815481106109ac575f80fd5b905f5260205f20015f915054906101000a900473ffffffffffffffffffffffffffffffffffffffff1681565b60025f9054906101000a900473ffffffffffffffffffffffffffffffffffffffff1681565b5f60075f3373ffffffffffffffffffffffffffffffffffffffff1673ffffffffffffffffffffffffffffffffffffffff1681526020019081526020015f209050806005015f9054906101000a900460ff1615610a8e576040517f08c379a0000000000000000000000000000000000000000000000000000000008152600401610a8590612540565b60405180910390fd5b6001816004015414610ad5576040517f08c379a0000000000000000000000000000000000000000000000000000000008152600401610acc906125ce565b60405180910390fd5b6001816005015f6101000a81548160ff021916908315150217905550818160060181905550600533908060018154018082558091505060019003905f5260205f20015f9091909190916101000a81548173ffffffffffffffffffffffffffffffffffffffff021916908373ffffffffffffffffffffffffffffffffffffffff160217905550600160045f8573ffffffffffffffffffffffffffffffffffffffff1673ffffffffffffffffffffffffffffffffffffffff1681526020019081526020015f206004015f828254610baa9190612619565b92505081905550505050565b60606003805480602002602001604051908101604052809291908181526020018280548015610c3757602002820191905f5260205f20905b815f9054906101000a900473ffffffffffffffffffffffffffffffffffffffff1673ffffffffffffffffffffffffffffffffffffffff1681526020019060010190808311610bee575b5050505050905090565b60058181548110610c50575f80fd5b905f5260205f20015f915054906101000a900473ffffffffffffffffffffffffffffffffffffffff1681565b6004602052805f5260405f205f91509050805f015490806001018054610ca1906121d5565b80601f0160208091040260200160405190810160405280929190818152602001828054610ccd906121d5565b8015610d185780601f10610cef57610100808354040283529160200191610d18565b820191905f5260205f20905b815481529060010190602001808311610cfb57829003601f168201915b505050505090806002018054610d2d906121d5565b80601f0160208091040260200160405190810160405280929190818152602001828054610d59906121d5565b8015610da45780601f10610d7b57610100808354040283529160200191610da4565b820191905f5260205f20905b815481529060010190602001808311610d8757829003601f168201915b505050505090806003018054610db9906121d5565b80601f0160208091040260200160405190810160405280929190818152602001828054610de5906121d5565b8015610e305780601f10610e0757610100808354040283529160200191610e30565b820191905f5260205f20905b815481529060010190602001808311610e1357829003601f168201915b505050505090806004015490806005015f9054906101000a900473ffffffffffffffffffffffffffffffffffffffff1690806006018054610e70906121d5565b80601f0160208091040260200160405190810160405280929190818152602001828054610e9c906121d5565b8015610ee75780601f10610ebe57610100808354040283529160200191610ee7565b820191905f5260205f20905b815481529060010190602001808311610eca57829003601f168201915b5050505050905087565b60606005805480602002602001604051908101604052809291908181526020018280548015610f7257602002820191905f5260205f20905b815f9054906101000a900473ffffffffffffffffffffffffffffffffffffffff1673ffffffffffffffffffffffffffffffffffffffff1681526020019060010190808311610f29575b5050505050905090565b610f8461175d565b60075f8373ffffffffffffffffffffffffffffffffffffffff1673ffffffffffffffffffffffffffffffffffffffff1681526020019081526020015f20604051806101000160405290815f8201548152602001600182018054610fe6906121d5565b80601f0160208091040260200160405190810160405280929190818152602001828054611012906121d5565b801561105d5780601f106110345761010080835404028352916020019161105d565b820191905f5260205f20905b81548152906001019060200180831161104057829003601f168201915b50505050508152602001600282018054611076906121d5565b80601f01602080910402602001604051908101604052809291908181526020018280546110a2906121d5565b80156110ed5780601f106110c4576101008083540402835291602001916110ed565b820191905f5260205f20905b8154815290600101906020018083116110d057829003601f168201915b50505050508152602001600382015f9054906101000a900473ffffffffffffffffffffffffffffffffffffffff1673ffffffffffffffffffffffffffffffffffffffff1673ffffffffffffffffffffffffffffffffffffffff16815260200160048201548152602001600582015f9054906101000a900460ff1615151515815260200160068201548152602001600782018054611189906121d5565b80601f01602080910402602001604051908101604052809291908181526020018280546111b5906121d5565b80156112005780601f106111d757610100808354040283529160200191611200565b820191905f5260205f20905b8154815290600101906020018083116111e357829003601f168201915b5050505050815250509050919050565b6007602052805f5260405f205f91509050805f015490806001018054611235906121d5565b80601f0160208091040260200160405190810160405280929190818152602001828054611261906121d5565b80156112ac5780601f10611283576101008083540402835291602001916112ac565b820191905f5260205f20905b81548152906001019060200180831161128f57829003601f168201915b5050505050908060020180546112c1906121d5565b80601f01602080910402602001604051908101604052809291908181526020018280546112ed906121d5565b80156113385780601f1061130f57610100808354040283529160200191611338565b820191905f5260205f20905b81548152906001019060200180831161131b57829003601f168201915b505050505090806003015f9054906101000a900473ffffffffffffffffffffffffffffffffffffffff1690806004015490806005015f9054906101000a900460ff1690806006015490806007018054611390906121d5565b80601f01602080910402602001604051908101604052809291908181526020018280546113bc906121d5565b80156114075780601f106113de57610100808354040283529160200191611407565b820191905f5260205f20905b8154815290600101906020018083116113ea57829003601f168201915b5050505050905088565b6001805f0154905081565b6060600680548060200260200160405190810160405280929190818152602001828054801561149d57602002820191905f5260205f20905b815f9054906101000a900473ffffffffffffffffffffffffffffffffffffffff1673ffffffffffffffffffffffffffffffffffffffff1681526020019060010190808311611454575b5050505050905090565b5f805f0154905081565b60025f9054906101000a900473ffffffffffffffffffffffffffffffffffffffff1673ffffffffffffffffffffffffffffffffffffffff163373ffffffffffffffffffffffffffffffffffffffff1614611540576040517f08c379a0000000000000000000000000000000000000000000000000000000008152600401611537906126bc565b60405180910390fd5b61154a60016116ed565b5f6115556001611701565b90505f60045f8873ffffffffffffffffffffffffffffffffffffffff1673ffffffffffffffffffffffffffffffffffffffff1681526020019081526020015f209050858160010190816115a891906123a5565b50848160020190816115ba91906123a5565b50838160030190816115cc91906123a5565b5081815f018190555086816005015f6101000a81548173ffffffffffffffffffffffffffffffffffffffff021916908373ffffffffffffffffffffffffffffffffffffffff1602179055508281600601908161162891906123a5565b505f8160040181905550600387908060018154018082558091505060019003905f5260205f20015f9091909190916101000a81548173ffffffffffffffffffffffffffffffffffffffff021916908373ffffffffffffffffffffffffffffffffffffffff160217905550817fd297f12b256bb8485a6013fb5e302017018123e99a0ebb20756c09e1707b4b9087878785600401548c896040516116d0969594939291906126da565b60405180910390a250505050505050565b5f600380549050905090565b6001815f015f828254019250508190555050565b5f815f01549050919050565b6040518060e001604052805f81526020016060815260200160608152602001606081526020015f81526020015f73ffffffffffffffffffffffffffffffffffffffff168152602001606081525090565b6040518061010001604052805f815260200160608152602001606081526020015f73ffffffffffffffffffffffffffffffffffffffff1681526020015f81526020015f151581526020015f8152602001606081525090565b5f604051905090565b5f5ffd5b5f5ffd5b5f73ffffffffffffffffffffffffffffffffffffffff82169050919050565b5f6117ef826117c6565b9050919050565b6117ff816117e5565b8114611809575f5ffd5b50565b5f8135905061181a816117f6565b92915050565b5f5ffd5b5f5ffd5b5f601f19601f8301169050919050565b7f4e487b71000000000000000000000000000000000000000000000000000000005f52604160045260245ffd5b61186e82611828565b810181811067ffffffffffffffff8211171561188d5761188c611838565b5b80604052505050565b5f61189f6117b5565b90506118ab8282611865565b919050565b5f67ffffffffffffffff8211156118ca576118c9611838565b5b6118d382611828565b9050602081019050919050565b828183375f83830152505050565b5f6119006118fb846118b0565b611896565b90508281526020810184848401111561191c5761191b611824565b5b6119278482856118e0565b509392505050565b5f82601f83011261194357611942611820565b5b81356119538482602086016118ee565b91505092915050565b5f5f5f5f60808587031215611974576119736117be565b5b5f6119818782880161180c565b945050602085013567ffffffffffffffff8111156119a2576119a16117c2565b5b6119ae8782880161192f565b935050604085013567ffffffffffffffff8111156119cf576119ce6117c2565b5b6119db8782880161192f565b925050606085013567ffffffffffffffff8111156119fc576119fb6117c2565b5b611a088782880161192f565b91505092959194509250565b5f819050919050565b611a2681611a14565b82525050565b5f602082019050611a3f5f830184611a1d565b92915050565b5f60208284031215611a5a57611a596117be565b5b5f611a678482850161180c565b91505092915050565b611a7981611a14565b82525050565b5f81519050919050565b5f82825260208201905092915050565b8281835e5f83830152505050565b5f611ab182611a7f565b611abb8185611a89565b9350611acb818560208601611a99565b611ad481611828565b840191505092915050565b611ae8816117e5565b82525050565b5f60e083015f830151611b035f860182611a70565b5060208301518482036020860152611b1b8282611aa7565b91505060408301518482036040860152611b358282611aa7565b91505060608301518482036060860152611b4f8282611aa7565b9150506080830151611b646080860182611a70565b5060a0830151611b7760a0860182611adf565b5060c083015184820360c0860152611b8f8282611aa7565b9150508091505092915050565b5f6020820190508181035f830152611bb48184611aee565b905092915050565b611bc581611a14565b8114611bcf575f5ffd5b50565b5f81359050611be081611bbc565b92915050565b5f60208284031215611bfb57611bfa6117be565b5b5f611c0884828501611bd2565b91505092915050565b611c1a816117e5565b82525050565b5f602082019050611c335f830184611c11565b92915050565b5f5f60408385031215611c4f57611c4e6117be565b5b5f611c5c8582860161180c565b9250506020611c6d85828601611bd2565b9150509250929050565b5f81519050919050565b5f82825260208201905092915050565b5f819050602082019050919050565b5f611cab8383611adf565b60208301905092915050565b5f602082019050919050565b5f611ccd82611c77565b611cd78185611c81565b9350611ce283611c91565b805f5b83811015611d12578151611cf98882611ca0565b9750611d0483611cb7565b925050600181019050611ce5565b5085935050505092915050565b5f6020820190508181035f830152611d378184611cc3565b905092915050565b5f82825260208201905092915050565b5f611d5982611a7f565b611d638185611d3f565b9350611d73818560208601611a99565b611d7c81611828565b840191505092915050565b5f60e082019050611d9a5f83018a611a1d565b8181036020830152611dac8189611d4f565b90508181036040830152611dc08188611d4f565b90508181036060830152611dd48187611d4f565b9050611de36080830186611a1d565b611df060a0830185611c11565b81810360c0830152611e028184611d4f565b905098975050505050505050565b5f8115159050919050565b611e2481611e10565b82525050565b5f61010083015f830151611e405f860182611a70565b5060208301518482036020860152611e588282611aa7565b91505060408301518482036040860152611e728282611aa7565b9150506060830151611e876060860182611adf565b506080830151611e9a6080860182611a70565b5060a0830151611ead60a0860182611e1b565b5060c0830151611ec060c0860182611a70565b5060e083015184820360e0860152611ed88282611aa7565b9150508091505092915050565b5f6020820190508181035f830152611efd8184611e2a565b905092915050565b611f0e81611e10565b82525050565b5f61010082019050611f285f83018b611a1d565b8181036020830152611f3a818a611d4f565b90508181036040830152611f4e8189611d4f565b9050611f5d6060830188611c11565b611f6a6080830187611a1d565b611f7760a0830186611f05565b611f8460c0830185611a1d565b81810360e0830152611f968184611d4f565b90509998505050505050505050565b5f5f5f5f5f60a08688031215611fbe57611fbd6117be565b5b5f611fcb8882890161180c565b955050602086013567ffffffffffffffff811115611fec57611feb6117c2565b5b611ff88882890161192f565b945050604086013567ffffffffffffffff811115612019576120186117c2565b5b6120258882890161192f565b935050606086013567ffffffffffffffff811115612046576120456117c2565b5b6120528882890161192f565b925050608086013567ffffffffffffffff811115612073576120726117c2565b5b61207f8882890161192f565b9150509295509295909350565b7f4f6e6c7920766f74696e67206f7267616e697a65722063616e206769766520725f8201527f6967687420746f20766f74650000000000000000000000000000000000000000602082015250565b5f6120e6602c83611d3f565b91506120f18261208c565b604082019050919050565b5f6020820190508181035f830152612113816120da565b9050919050565b7f566f74657220616c7265616479206861732074686520726967687420746f20765f8201527f6f74650000000000000000000000000000000000000000000000000000000000602082015250565b5f612174602383611d3f565b915061217f8261211a565b604082019050919050565b5f6020820190508181035f8301526121a181612168565b9050919050565b7f4e487b71000000000000000000000000000000000000000000000000000000005f52602260045260245ffd5b5f60028204905060018216806121ec57607f821691505b6020821081036121ff576121fe6121a8565b5b50919050565b5f819050815f5260205f209050919050565b5f6020601f8301049050919050565b5f82821b905092915050565b5f600883026122617fffffffffffffffffffffffffffffffffffffffffffffffffffffffffffffffff82612226565b61226b8683612226565b95508019841693508086168417925050509392505050565b5f819050919050565b5f6122a66122a161229c84611a14565b612283565b611a14565b9050919050565b5f819050919050565b6122bf8361228c565b6122d36122cb826122ad565b848454612232565b825550505050565b5f5f905090565b6122ea6122db565b6122f58184846122b6565b505050565b5b818110156123185761230d5f826122e2565b6001810190506122fb565b5050565b601f82111561235d5761232e81612205565b61233784612217565b81016020851015612346578190505b61235a61235285612217565b8301826122fa565b50505b505050565b5f82821c905092915050565b5f61237d5f1984600802612362565b1980831691505092915050565b5f612395838361236e565b9150826002028217905092915050565b6123ae82611a7f565b67ffffffffffffffff8111156123c7576123c6611838565b5b6123d182546121d5565b6123dc82828561231c565b5f60209050601f83116001811461240d575f84156123fb578287015190505b612405858261238a565b86555061246c565b601f19841661241b86612205565b5f5b828110156124425784890151825560018201915060208501945060208101905061241d565b8683101561245f578489015161245b601f89168261236e565b8355505b6001600288020188555050505b505050505050565b5f60e0820190508181035f83015261248c818a611d4f565b905081810360208301526124a08189611d4f565b90506124af6040830188611c11565b6124bc6060830187611a1d565b6124c96080830186611f05565b6124d660a0830185611a1d565b81810360c08301526124e88184611d4f565b905098975050505050505050565b7f596f75206861766520616c726561647920766f746564000000000000000000005f82015250565b5f61252a601683611d3f565b9150612535826124f6565b602082019050919050565b5f6020820190508181035f8301526125578161251e565b9050919050565b7f596f7520646f206e6f7420686176652074686520726967687420746f20766f745f8201527f6500000000000000000000000000000000000000000000000000000000000000602082015250565b5f6125b8602183611d3f565b91506125c38261255e565b604082019050919050565b5f6020820190508181035f8301526125e5816125ac565b9050919050565b7f4e487b71000000000000000000000000000000000000000000000000000000005f52601160045260245ffd5b5f61262382611a14565b915061262e83611a14565b9250828201905080821115612646576126456125ec565b5b92915050565b7f4f6e6c7920766f74696e67206f7267616e697a65722063616e20616464206f725f8201527f2063726561746563616e64696461746573000000000000000000000000000000602082015250565b5f6126a6603183611d3f565b91506126b18261264c565b604082019050919050565b5f6020820190508181035f8301526126d38161269a565b9050919050565b5f60c0820190508181035f8301526126f28189611d4f565b905081810360208301526127068188611d4f565b9050818103604083015261271a8187611d4f565b90506127296060830186611a1d565b6127366080830185611c11565b81810360a08301526127488184611d4f565b905097965050505050505056fea2646970667358221220f3dad427c4acd2d6905634b67a24a1502363a95514a8ebfe3eb3f73c669b2acd64736f6c634300081c0033",
  "linkReferences": {},
  "deployedLinkReferences": {},
  "immutableReferences": {},
  "inputSourceName": "project/contracts/VotingContract.sol",
  "buildInfoId": "solc-0_8_28-fea29f78d69153cedb3d7feb49d5d48ec7593336"
}